{
  "contractName": "BatchToken",
  "abi": [
    {
      "inputs": [],
      "stateMutability": "nonpayable",
      "type": "constructor"
    },
    {
      "anonymous": false,
      "inputs": [
        {
          "indexed": true,
          "internalType": "address",
          "name": "owner",
          "type": "address"
        },
        {
          "indexed": true,
          "internalType": "address",
          "name": "approved",
          "type": "address"
        },
        {
          "indexed": true,
          "internalType": "uint256",
          "name": "tokenId",
          "type": "uint256"
        }
      ],
      "name": "Approval",
      "type": "event"
    },
    {
      "anonymous": false,
      "inputs": [
        {
          "indexed": true,
          "internalType": "address",
          "name": "owner",
          "type": "address"
        },
        {
          "indexed": true,
          "internalType": "address",
          "name": "operator",
          "type": "address"
        },
        {
          "indexed": false,
          "internalType": "bool",
          "name": "approved",
          "type": "bool"
        }
      ],
      "name": "ApprovalForAll",
      "type": "event"
    },
    {
      "anonymous": false,
      "inputs": [
        {
          "indexed": true,
          "internalType": "address",
          "name": "previousOwner",
          "type": "address"
        },
        {
          "indexed": true,
          "internalType": "address",
          "name": "newOwner",
          "type": "address"
        }
      ],
      "name": "OwnershipTransferred",
      "type": "event"
    },
    {
      "anonymous": false,
      "inputs": [
        {
          "indexed": true,
          "internalType": "address",
          "name": "from",
          "type": "address"
        },
        {
          "indexed": true,
          "internalType": "address",
          "name": "to",
          "type": "address"
        },
        {
          "indexed": true,
          "internalType": "uint256",
          "name": "tokenId",
          "type": "uint256"
        }
      ],
      "name": "Transfer",
      "type": "event"
    },
    {
      "inputs": [
        {
          "internalType": "address",
          "name": "to",
          "type": "address"
        },
        {
          "internalType": "uint256",
          "name": "tokenId",
          "type": "uint256"
        }
      ],
      "name": "approve",
      "outputs": [],
      "stateMutability": "nonpayable",
      "type": "function"
    },
    {
      "inputs": [
        {
          "internalType": "address",
          "name": "owner",
          "type": "address"
        }
      ],
      "name": "balanceOf",
      "outputs": [
        {
          "internalType": "uint256",
          "name": "",
          "type": "uint256"
        }
      ],
      "stateMutability": "view",
      "type": "function"
    },
    {
      "inputs": [
        {
          "internalType": "uint256",
          "name": "tokenId",
          "type": "uint256"
        }
      ],
      "name": "getApproved",
      "outputs": [
        {
          "internalType": "address",
          "name": "",
          "type": "address"
        }
      ],
      "stateMutability": "view",
      "type": "function"
    },
    {
      "inputs": [
        {
          "internalType": "address",
          "name": "owner",
          "type": "address"
        },
        {
          "internalType": "address",
          "name": "operator",
          "type": "address"
        }
      ],
      "name": "isApprovedForAll",
      "outputs": [
        {
          "internalType": "bool",
          "name": "",
          "type": "bool"
        }
      ],
      "stateMutability": "view",
      "type": "function"
    },
    {
      "inputs": [],
      "name": "name",
      "outputs": [
        {
          "internalType": "string",
          "name": "",
          "type": "string"
        }
      ],
      "stateMutability": "view",
      "type": "function"
    },
    {
      "inputs": [],
      "name": "owner",
      "outputs": [
        {
          "internalType": "address",
          "name": "",
          "type": "address"
        }
      ],
      "stateMutability": "view",
      "type": "function"
    },
    {
      "inputs": [
        {
          "internalType": "uint256",
          "name": "tokenId",
          "type": "uint256"
        }
      ],
      "name": "ownerOf",
      "outputs": [
        {
          "internalType": "address",
          "name": "",
          "type": "address"
        }
      ],
      "stateMutability": "view",
      "type": "function"
    },
    {
      "inputs": [],
      "name": "renounceOwnership",
      "outputs": [],
      "stateMutability": "nonpayable",
      "type": "function"
    },
    {
      "inputs": [
        {
          "internalType": "address",
          "name": "from",
          "type": "address"
        },
        {
          "internalType": "address",
          "name": "to",
          "type": "address"
        },
        {
          "internalType": "uint256",
          "name": "tokenId",
          "type": "uint256"
        }
      ],
      "name": "safeTransferFrom",
      "outputs": [],
      "stateMutability": "nonpayable",
      "type": "function"
    },
    {
      "inputs": [
        {
          "internalType": "address",
          "name": "from",
          "type": "address"
        },
        {
          "internalType": "address",
          "name": "to",
          "type": "address"
        },
        {
          "internalType": "uint256",
          "name": "tokenId",
          "type": "uint256"
        },
        {
          "internalType": "bytes",
          "name": "_data",
          "type": "bytes"
        }
      ],
      "name": "safeTransferFrom",
      "outputs": [],
      "stateMutability": "nonpayable",
      "type": "function"
    },
    {
      "inputs": [
        {
          "internalType": "address",
          "name": "operator",
          "type": "address"
        },
        {
          "internalType": "bool",
          "name": "approved",
          "type": "bool"
        }
      ],
      "name": "setApprovalForAll",
      "outputs": [],
      "stateMutability": "nonpayable",
      "type": "function"
    },
    {
      "inputs": [
        {
          "internalType": "bytes4",
          "name": "interfaceId",
          "type": "bytes4"
        }
      ],
      "name": "supportsInterface",
      "outputs": [
        {
          "internalType": "bool",
          "name": "",
          "type": "bool"
        }
      ],
      "stateMutability": "view",
      "type": "function"
    },
    {
      "inputs": [],
      "name": "symbol",
      "outputs": [
        {
          "internalType": "string",
          "name": "",
          "type": "string"
        }
      ],
      "stateMutability": "view",
      "type": "function"
    },
    {
      "inputs": [
        {
          "internalType": "address",
          "name": "from",
          "type": "address"
        },
        {
          "internalType": "address",
          "name": "to",
          "type": "address"
        },
        {
          "internalType": "uint256",
          "name": "tokenId",
          "type": "uint256"
        }
      ],
      "name": "transferFrom",
      "outputs": [],
      "stateMutability": "nonpayable",
      "type": "function"
    },
    {
      "inputs": [
        {
          "internalType": "address",
          "name": "newOwner",
          "type": "address"
        }
      ],
      "name": "transferOwnership",
      "outputs": [],
      "stateMutability": "nonpayable",
      "type": "function"
    },
    {
      "inputs": [
        {
          "internalType": "uint256",
          "name": "tokenId",
          "type": "uint256"
        }
      ],
      "name": "tokenURI",
      "outputs": [
        {
          "internalType": "string",
          "name": "",
          "type": "string"
        }
      ],
      "stateMutability": "view",
      "type": "function"
    },
    {
      "inputs": [
        {
          "internalType": "address",
          "name": "recipient",
          "type": "address"
        },
        {
          "internalType": "string",
          "name": "uri",
          "type": "string"
        }
      ],
      "name": "mint",
      "outputs": [
        {
          "internalType": "uint256",
          "name": "",
          "type": "uint256"
        }
      ],
      "stateMutability": "nonpayable",
      "type": "function"
    }
  ],
  "bytecode": "0x60806040523480156200001157600080fd5b506040518060400160405280600a81526020017f4261746368546f6b656e000000000000000000000000000000000000000000008152506040518060400160405280600381526020017f4d4254000000000000000000000000000000000000000000000000000000000081525081600090805190602001906200009692919062000171565b508060019080519060200190620000af92919062000171565b5050506000620000c46200016960201b60201c565b905080600660006101000a81548173ffffffffffffffffffffffffffffffffffffffff021916908373ffffffffffffffffffffffffffffffffffffffff1602179055508073ffffffffffffffffffffffffffffffffffffffff16600073ffffffffffffffffffffffffffffffffffffffff167f8be0079c531659141344cd1fd0a4f28419497f9722a3daafe3b4186f6b6457e060405160405180910390a35062000286565b600033905090565b8280546200017f9062000221565b90600052602060002090601f016020900481019282620001a35760008555620001ef565b82601f10620001be57805160ff1916838001178555620001ef565b82800160010185558215620001ef579182015b82811115620001ee578251825591602001919060010190620001d1565b5b509050620001fe919062000202565b5090565b5b808211156200021d57600081600090555060010162000203565b5090565b600060028204905060018216806200023a57607f821691505b6020821081141562000251576200025062000257565b5b50919050565b7f4e487b7100000000000000000000000000000000000000000000000000000000600052602260045260246000fd5b61298b80620002966000396000f3fe608060405234801561001057600080fd5b506004361061010b5760003560e01c8063715018a6116100a2578063b88d4fde11610071578063b88d4fde146102a4578063c87b56dd146102c0578063d0def521146102f0578063e985e9c514610320578063f2fde38b146103505761010b565b8063715018a6146102425780638da5cb5b1461024c57806395d89b411461026a578063a22cb465146102885761010b565b806323b872dd116100de57806323b872dd146101aa57806342842e0e146101c65780636352211e146101e257806370a08231146102125761010b565b806301ffc9a71461011057806306fdde0314610140578063081812fc1461015e578063095ea7b31461018e575b600080fd5b61012a60048036038101906101259190611c7f565b61036c565b60405161013791906123c8565b60405180910390f35b61014861044e565b60405161015591906123e3565b60405180910390f35b61017860048036038101906101739190611cd1565b6104e0565b6040516101859190612361565b60405180910390f35b6101a860048036038101906101a39190611c43565b610565565b005b6101c460048036038101906101bf9190611ae9565b61067d565b005b6101e060048036038101906101db9190611ae9565b6106dd565b005b6101fc60048036038101906101f79190611cd1565b6106fd565b6040516102099190612361565b60405180910390f35b61022c60048036038101906102279190611a84565b6107af565b6040516102399190612605565b60405180910390f35b61024a610867565b005b6102546109a4565b6040516102619190612361565b60405180910390f35b6102726109ce565b60405161027f91906123e3565b60405180910390f35b6102a2600480360381019061029d9190611bb3565b610a60565b005b6102be60048036038101906102b99190611b38565b610be1565b005b6102da60048036038101906102d59190611cd1565b610c43565b6040516102e791906123e3565b60405180910390f35b61030a60048036038101906103059190611bef565b610d36565b6040516103179190612605565b60405180910390f35b61033a60048036038101906103359190611aad565b610d6e565b60405161034791906123c8565b60405180910390f35b61036a60048036038101906103659190611a84565b610e02565b005b60007f80ac58cd000000000000000000000000000000000000000000000000000000007bffffffffffffffffffffffffffffffffffffffffffffffffffffffff1916827bffffffffffffffffffffffffffffffffffffffffffffffffffffffff1916148061043757507f5b5e139f000000000000000000000000000000000000000000000000000000007bffffffffffffffffffffffffffffffffffffffffffffffffffffffff1916827bffffffffffffffffffffffffffffffffffffffffffffffffffffffff1916145b80610447575061044682610fae565b5b9050919050565b60606000805461045d90612829565b80601f016020809104026020016040519081016040528092919081815260200182805461048990612829565b80156104d65780601f106104ab576101008083540402835291602001916104d6565b820191906000526020600020905b8154815290600101906020018083116104b957829003601f168201915b5050505050905090565b60006104eb82611018565b61052a576040517f08c379a000000000000000000000000000000000000000000000000000000000815260040161052190612545565b60405180910390fd5b6004600083815260200190815260200160002060009054906101000a900473ffffffffffffffffffffffffffffffffffffffff169050919050565b6000610570826106fd565b90508073ffffffffffffffffffffffffffffffffffffffff168373ffffffffffffffffffffffffffffffffffffffff1614156105e1576040517f08c379a00000000000000000000000000000000000000000000000000000000081526004016105d8906125c5565b60405180910390fd5b8073ffffffffffffffffffffffffffffffffffffffff16610600611084565b73ffffffffffffffffffffffffffffffffffffffff16148061062f575061062e81610629611084565b610d6e565b5b61066e576040517f08c379a0000000000000000000000000000000000000000000000000000000008152600401610665906124c5565b60405180910390fd5b610678838361108c565b505050565b61068e610688611084565b82611145565b6106cd576040517f08c379a00000000000000000000000000000000000000000000000000000000081526004016106c4906125e5565b60405180910390fd5b6106d8838383611223565b505050565b6106f883838360405180602001604052806000815250610be1565b505050565b6000806002600084815260200190815260200160002060009054906101000a900473ffffffffffffffffffffffffffffffffffffffff169050600073ffffffffffffffffffffffffffffffffffffffff168173ffffffffffffffffffffffffffffffffffffffff1614156107a6576040517f08c379a000000000000000000000000000000000000000000000000000000000815260040161079d90612505565b60405180910390fd5b80915050919050565b60008073ffffffffffffffffffffffffffffffffffffffff168273ffffffffffffffffffffffffffffffffffffffff161415610820576040517f08c379a0000000000000000000000000000000000000000000000000000000008152600401610817906124e5565b60405180910390fd5b600360008373ffffffffffffffffffffffffffffffffffffffff1673ffffffffffffffffffffffffffffffffffffffff168152602001908152602001600020549050919050565b61086f611084565b73ffffffffffffffffffffffffffffffffffffffff1661088d6109a4565b73ffffffffffffffffffffffffffffffffffffffff16146108e3576040517f08c379a00000000000000000000000000000000000000000000000000000000081526004016108da90612565565b60405180910390fd5b600073ffffffffffffffffffffffffffffffffffffffff16600660009054906101000a900473ffffffffffffffffffffffffffffffffffffffff1673ffffffffffffffffffffffffffffffffffffffff167f8be0079c531659141344cd1fd0a4f28419497f9722a3daafe3b4186f6b6457e060405160405180910390a36000600660006101000a81548173ffffffffffffffffffffffffffffffffffffffff021916908373ffffffffffffffffffffffffffffffffffffffff160217905550565b6000600660009054906101000a900473ffffffffffffffffffffffffffffffffffffffff16905090565b6060600180546109dd90612829565b80601f0160208091040260200160405190810160405280929190818152602001828054610a0990612829565b8015610a565780601f10610a2b57610100808354040283529160200191610a56565b820191906000526020600020905b815481529060010190602001808311610a3957829003601f168201915b5050505050905090565b610a68611084565b73ffffffffffffffffffffffffffffffffffffffff168273ffffffffffffffffffffffffffffffffffffffff161415610ad6576040517f08c379a0000000000000000000000000000000000000000000000000000000008152600401610acd90612485565b60405180910390fd5b8060056000610ae3611084565b73ffffffffffffffffffffffffffffffffffffffff1673ffffffffffffffffffffffffffffffffffffffff16815260200190815260200160002060008473ffffffffffffffffffffffffffffffffffffffff1673ffffffffffffffffffffffffffffffffffffffff16815260200190815260200160002060006101000a81548160ff0219169083151502179055508173ffffffffffffffffffffffffffffffffffffffff16610b90611084565b73ffffffffffffffffffffffffffffffffffffffff167f17307eab39ab6107e8899845ad3d59bd9653f200f220920489ca2b5937696c3183604051610bd591906123c8565b60405180910390a35050565b610bf2610bec611084565b83611145565b610c31576040517f08c379a0000000000000000000000000000000000000000000000000000000008152600401610c28906125e5565b60405180910390fd5b610c3d8484848461147f565b50505050565b6060610c4e82611018565b610c8d576040517f08c379a0000000000000000000000000000000000000000000000000000000008152600401610c84906125a5565b60405180910390fd5b6000600860008481526020019081526020016000208054610cad90612829565b80601f0160208091040260200160405190810160405280929190818152602001828054610cd990612829565b8015610d265780601f10610cfb57610100808354040283529160200191610d26565b820191906000526020600020905b815481529060010190602001808311610d0957829003601f168201915b5050505050905080915050919050565b6000610d4260076114db565b6000610d4e60076114f1565b9050610d5a84826114ff565b610d6481846116cd565b8091505092915050565b6000600560008473ffffffffffffffffffffffffffffffffffffffff1673ffffffffffffffffffffffffffffffffffffffff16815260200190815260200160002060008373ffffffffffffffffffffffffffffffffffffffff1673ffffffffffffffffffffffffffffffffffffffff16815260200190815260200160002060009054906101000a900460ff16905092915050565b610e0a611084565b73ffffffffffffffffffffffffffffffffffffffff16610e286109a4565b73ffffffffffffffffffffffffffffffffffffffff1614610e7e576040517f08c379a0000000000000000000000000000000000000000000000000000000008152600401610e7590612565565b60405180910390fd5b600073ffffffffffffffffffffffffffffffffffffffff168173ffffffffffffffffffffffffffffffffffffffff161415610eee576040517f08c379a0000000000000000000000000000000000000000000000000000000008152600401610ee590612425565b60405180910390fd5b8073ffffffffffffffffffffffffffffffffffffffff16600660009054906101000a900473ffffffffffffffffffffffffffffffffffffffff1673ffffffffffffffffffffffffffffffffffffffff167f8be0079c531659141344cd1fd0a4f28419497f9722a3daafe3b4186f6b6457e060405160405180910390a380600660006101000a81548173ffffffffffffffffffffffffffffffffffffffff021916908373ffffffffffffffffffffffffffffffffffffffff16021790555050565b60007f01ffc9a7000000000000000000000000000000000000000000000000000000007bffffffffffffffffffffffffffffffffffffffffffffffffffffffff1916827bffffffffffffffffffffffffffffffffffffffffffffffffffffffff1916149050919050565b60008073ffffffffffffffffffffffffffffffffffffffff166002600084815260200190815260200160002060009054906101000a900473ffffffffffffffffffffffffffffffffffffffff1673ffffffffffffffffffffffffffffffffffffffff1614159050919050565b600033905090565b816004600083815260200190815260200160002060006101000a81548173ffffffffffffffffffffffffffffffffffffffff021916908373ffffffffffffffffffffffffffffffffffffffff160217905550808273ffffffffffffffffffffffffffffffffffffffff166110ff836106fd565b73ffffffffffffffffffffffffffffffffffffffff167f8c5be1e5ebec7d5bd14f71427d1e84f3dd0314c0f7b2291e5b200ac8c7c3b92560405160405180910390a45050565b600061115082611018565b61118f576040517f08c379a0000000000000000000000000000000000000000000000000000000008152600401611186906124a5565b60405180910390fd5b600061119a836106fd565b90508073ffffffffffffffffffffffffffffffffffffffff168473ffffffffffffffffffffffffffffffffffffffff16148061120957508373ffffffffffffffffffffffffffffffffffffffff166111f1846104e0565b73ffffffffffffffffffffffffffffffffffffffff16145b8061121a57506112198185610d6e565b5b91505092915050565b8273ffffffffffffffffffffffffffffffffffffffff16611243826106fd565b73ffffffffffffffffffffffffffffffffffffffff1614611299576040517f08c379a000000000000000000000000000000000000000000000000000000000815260040161129090612585565b60405180910390fd5b600073ffffffffffffffffffffffffffffffffffffffff168273ffffffffffffffffffffffffffffffffffffffff161415611309576040517f08c379a000000000000000000000000000000000000000000000000000000000815260040161130090612465565b60405180910390fd5b6113148383836116f9565b61131f60008261108c565b6001600360008573ffffffffffffffffffffffffffffffffffffffff1673ffffffffffffffffffffffffffffffffffffffff168152602001908152602001600020600082825461136f919061273f565b925050819055506001600360008473ffffffffffffffffffffffffffffffffffffffff1673ffffffffffffffffffffffffffffffffffffffff16815260200190815260200160002060008282546113c691906126e9565b92505081905550816002600083815260200190815260200160002060006101000a81548173ffffffffffffffffffffffffffffffffffffffff021916908373ffffffffffffffffffffffffffffffffffffffff160217905550808273ffffffffffffffffffffffffffffffffffffffff168473ffffffffffffffffffffffffffffffffffffffff167fddf252ad1be2c89b69c2b068fc378daa952ba7f163c4a11628f55a4df523b3ef60405160405180910390a4505050565b61148a848484611223565b611496848484846116fe565b6114d5576040517f08c379a00000000000000000000000000000000000000000000000000000000081526004016114cc90612405565b60405180910390fd5b50505050565b6001816000016000828254019250508190555050565b600081600001549050919050565b600073ffffffffffffffffffffffffffffffffffffffff168273ffffffffffffffffffffffffffffffffffffffff16141561156f576040517f08c379a000000000000000000000000000000000000000000000000000000000815260040161156690612525565b60405180910390fd5b61157881611018565b156115b8576040517f08c379a00000000000000000000000000000000000000000000000000000000081526004016115af90612445565b60405180910390fd5b6115c4600083836116f9565b6001600360008473ffffffffffffffffffffffffffffffffffffffff1673ffffffffffffffffffffffffffffffffffffffff168152602001908152602001600020600082825461161491906126e9565b92505081905550816002600083815260200190815260200160002060006101000a81548173ffffffffffffffffffffffffffffffffffffffff021916908373ffffffffffffffffffffffffffffffffffffffff160217905550808273ffffffffffffffffffffffffffffffffffffffff16600073ffffffffffffffffffffffffffffffffffffffff167fddf252ad1be2c89b69c2b068fc378daa952ba7f163c4a11628f55a4df523b3ef60405160405180910390a45050565b806008600084815260200190815260200160002090805190602001906116f49291906118a8565b505050565b505050565b600061171f8473ffffffffffffffffffffffffffffffffffffffff16611895565b15611888578373ffffffffffffffffffffffffffffffffffffffff1663150b7a02611748611084565b8786866040518563ffffffff1660e01b815260040161176a949392919061237c565b602060405180830381600087803b15801561178457600080fd5b505af19250505080156117b557506040513d601f19601f820116820180604052508101906117b29190611ca8565b60015b611838573d80600081146117e5576040519150601f19603f3d011682016040523d82523d6000602084013e6117ea565b606091505b50600081511415611830576040517f08c379a000000000000000000000000000000000000000000000000000000000815260040161182790612405565b60405180910390fd5b805181602001fd5b63150b7a0260e01b7bffffffffffffffffffffffffffffffffffffffffffffffffffffffff1916817bffffffffffffffffffffffffffffffffffffffffffffffffffffffff19161491505061188d565b600190505b949350505050565b600080823b905060008111915050919050565b8280546118b490612829565b90600052602060002090601f0160209004810192826118d6576000855561191d565b82601f106118ef57805160ff191683800117855561191d565b8280016001018555821561191d579182015b8281111561191c578251825591602001919060010190611901565b5b50905061192a919061192e565b5090565b5b8082111561194757600081600090555060010161192f565b5090565b600061195e61195984612651565b612620565b90508281526020810184848401111561197657600080fd5b6119818482856127e7565b509392505050565b600061199c61199784612681565b612620565b9050828152602081018484840111156119b457600080fd5b6119bf8482856127e7565b509392505050565b6000813590506119d6816128f9565b92915050565b6000813590506119eb81612910565b92915050565b600081359050611a0081612927565b92915050565b600081519050611a1581612927565b92915050565b600082601f830112611a2c57600080fd5b8135611a3c84826020860161194b565b91505092915050565b600082601f830112611a5657600080fd5b8135611a66848260208601611989565b91505092915050565b600081359050611a7e8161293e565b92915050565b600060208284031215611a9657600080fd5b6000611aa4848285016119c7565b91505092915050565b60008060408385031215611ac057600080fd5b6000611ace858286016119c7565b9250506020611adf858286016119c7565b9150509250929050565b600080600060608486031215611afe57600080fd5b6000611b0c868287016119c7565b9350506020611b1d868287016119c7565b9250506040611b2e86828701611a6f565b9150509250925092565b60008060008060808587031215611b4e57600080fd5b6000611b5c878288016119c7565b9450506020611b6d878288016119c7565b9350506040611b7e87828801611a6f565b925050606085013567ffffffffffffffff811115611b9b57600080fd5b611ba787828801611a1b565b91505092959194509250565b60008060408385031215611bc657600080fd5b6000611bd4858286016119c7565b9250506020611be5858286016119dc565b9150509250929050565b60008060408385031215611c0257600080fd5b6000611c10858286016119c7565b925050602083013567ffffffffffffffff811115611c2d57600080fd5b611c3985828601611a45565b9150509250929050565b60008060408385031215611c5657600080fd5b6000611c64858286016119c7565b9250506020611c7585828601611a6f565b9150509250929050565b600060208284031215611c9157600080fd5b6000611c9f848285016119f1565b91505092915050565b600060208284031215611cba57600080fd5b6000611cc884828501611a06565b91505092915050565b600060208284031215611ce357600080fd5b6000611cf184828501611a6f565b91505092915050565b611d0381612773565b82525050565b611d1281612785565b82525050565b6000611d23826126b1565b611d2d81856126c7565b9350611d3d8185602086016127f6565b611d46816128e8565b840191505092915050565b6000611d5c826126bc565b611d6681856126d8565b9350611d768185602086016127f6565b611d7f816128e8565b840191505092915050565b6000611d976032836126d8565b91507f4552433732313a207472616e7366657220746f206e6f6e20455243373231526560008301527f63656976657220696d706c656d656e74657200000000000000000000000000006020830152604082019050919050565b6000611dfd6026836126d8565b91507f4f776e61626c653a206e6577206f776e657220697320746865207a65726f206160008301527f64647265737300000000000000000000000000000000000000000000000000006020830152604082019050919050565b6000611e63601c836126d8565b91507f4552433732313a20746f6b656e20616c7265616479206d696e746564000000006000830152602082019050919050565b6000611ea36024836126d8565b91507f4552433732313a207472616e7366657220746f20746865207a65726f2061646460008301527f72657373000000000000000000000000000000000000000000000000000000006020830152604082019050919050565b6000611f096019836126d8565b91507f4552433732313a20617070726f766520746f2063616c6c6572000000000000006000830152602082019050919050565b6000611f49602c836126d8565b91507f4552433732313a206f70657261746f7220717565727920666f72206e6f6e657860008301527f697374656e7420746f6b656e00000000000000000000000000000000000000006020830152604082019050919050565b6000611faf6038836126d8565b91507f4552433732313a20617070726f76652063616c6c6572206973206e6f74206f7760008301527f6e6572206e6f7220617070726f76656420666f7220616c6c00000000000000006020830152604082019050919050565b6000612015602a836126d8565b91507f4552433732313a2062616c616e636520717565727920666f7220746865207a6560008301527f726f2061646472657373000000000000000000000000000000000000000000006020830152604082019050919050565b600061207b6029836126d8565b91507f4552433732313a206f776e657220717565727920666f72206e6f6e657869737460008301527f656e7420746f6b656e00000000000000000000000000000000000000000000006020830152604082019050919050565b60006120e16020836126d8565b91507f4552433732313a206d696e7420746f20746865207a65726f20616464726573736000830152602082019050919050565b6000612121602c836126d8565b91507f4552433732313a20617070726f76656420717565727920666f72206e6f6e657860008301527f697374656e7420746f6b656e00000000000000000000000000000000000000006020830152604082019050919050565b60006121876020836126d8565b91507f4f776e61626c653a2063616c6c6572206973206e6f7420746865206f776e65726000830152602082019050919050565b60006121c76029836126d8565b91507f4552433732313a207472616e73666572206f6620746f6b656e2074686174206960008301527f73206e6f74206f776e00000000000000000000000000000000000000000000006020830152604082019050919050565b600061222d602f836126d8565b91507f4552433732314d657461646174613a2055524920717565727920666f72206e6f60008301527f6e6578697374656e7420746f6b656e00000000000000000000000000000000006020830152604082019050919050565b60006122936021836126d8565b91507f4552433732313a20617070726f76616c20746f2063757272656e74206f776e6560008301527f72000000000000000000000000000000000000000000000000000000000000006020830152604082019050919050565b60006122f96031836126d8565b91507f4552433732313a207472616e736665722063616c6c6572206973206e6f74206f60008301527f776e6572206e6f7220617070726f7665640000000000000000000000000000006020830152604082019050919050565b61235b816127dd565b82525050565b60006020820190506123766000830184611cfa565b92915050565b60006080820190506123916000830187611cfa565b61239e6020830186611cfa565b6123ab6040830185612352565b81810360608301526123bd8184611d18565b905095945050505050565b60006020820190506123dd6000830184611d09565b92915050565b600060208201905081810360008301526123fd8184611d51565b905092915050565b6000602082019050818103600083015261241e81611d8a565b9050919050565b6000602082019050818103600083015261243e81611df0565b9050919050565b6000602082019050818103600083015261245e81611e56565b9050919050565b6000602082019050818103600083015261247e81611e96565b9050919050565b6000602082019050818103600083015261249e81611efc565b9050919050565b600060208201905081810360008301526124be81611f3c565b9050919050565b600060208201905081810360008301526124de81611fa2565b9050919050565b600060208201905081810360008301526124fe81612008565b9050919050565b6000602082019050818103600083015261251e8161206e565b9050919050565b6000602082019050818103600083015261253e816120d4565b9050919050565b6000602082019050818103600083015261255e81612114565b9050919050565b6000602082019050818103600083015261257e8161217a565b9050919050565b6000602082019050818103600083015261259e816121ba565b9050919050565b600060208201905081810360008301526125be81612220565b9050919050565b600060208201905081810360008301526125de81612286565b9050919050565b600060208201905081810360008301526125fe816122ec565b9050919050565b600060208201905061261a6000830184612352565b92915050565b6000604051905081810181811067ffffffffffffffff82111715612647576126466128b9565b5b8060405250919050565b600067ffffffffffffffff82111561266c5761266b6128b9565b5b601f19601f8301169050602081019050919050565b600067ffffffffffffffff82111561269c5761269b6128b9565b5b601f19601f8301169050602081019050919050565b600081519050919050565b600081519050919050565b600082825260208201905092915050565b600082825260208201905092915050565b60006126f4826127dd565b91506126ff836127dd565b9250827fffffffffffffffffffffffffffffffffffffffffffffffffffffffffffffffff038211156127345761273361285b565b5b828201905092915050565b600061274a826127dd565b9150612755836127dd565b9250828210156127685761276761285b565b5b828203905092915050565b600061277e826127bd565b9050919050565b60008115159050919050565b60007fffffffff0000000000000000000000000000000000000000000000000000000082169050919050565b600073ffffffffffffffffffffffffffffffffffffffff82169050919050565b6000819050919050565b82818337600083830152505050565b60005b838110156128145780820151818401526020810190506127f9565b83811115612823576000848401525b50505050565b6000600282049050600182168061284157607f821691505b602082108114156128555761285461288a565b5b50919050565b7f4e487b7100000000000000000000000000000000000000000000000000000000600052601160045260246000fd5b7f4e487b7100000000000000000000000000000000000000000000000000000000600052602260045260246000fd5b7f4e487b7100000000000000000000000000000000000000000000000000000000600052604160045260246000fd5b6000601f19601f8301169050919050565b61290281612773565b811461290d57600080fd5b50565b61291981612785565b811461292457600080fd5b50565b61293081612791565b811461293b57600080fd5b50565b612947816127dd565b811461295257600080fd5b5056fea2646970667358221220b5d8748098369bb542cf52b36db600e6f4ec2e449e098fa9f3162dc4b8c7367164736f6c63430008000033",
  "immutableReferences": {},
  "source": "// SPDX-License-Identifier: MIT\npragma solidity >=0.4.21;\n\nimport \"@openzeppelin/contracts/token/ERC721/ERC721.sol\";\nimport \"@openzeppelin/contracts/utils/Counters.sol\";\nimport \"@openzeppelin/contracts/access/Ownable.sol\";\n\ncontract BatchToken is ERC721, Ownable {\n    using Counters for Counters.Counter;\n    using Strings for uint256;\n\n    Counters.Counter private _tokenIds;\n    mapping (uint256 => string) private _tokenURIs;\n\n    constructor() ERC721(\"BatchToken\", \"MBT\") {} //MBT: Manufacturer's Batch Token\n\n    function _setTokenURI(uint256 tokenId, string memory _tokenURI) internal virtual {\n        _tokenURIs[tokenId] = _tokenURI;\n    }\n    \n    function tokenURI(uint256 tokenId) public view virtual override returns (string memory) {\n        require(_exists(tokenId), \"ERC721Metadata: URI query for nonexistent token\");\n        string memory _tokenURI = _tokenURIs[tokenId];\n        return _tokenURI;\n    }\n\n    function mint(address recipient, string memory uri) public returns (uint256) {\n        _tokenIds.increment();\n        uint256 newItemId = _tokenIds.current();\n        _mint(recipient, newItemId);\n        _setTokenURI(newItemId, uri);\n        return newItemId;\n    }\n}",
  "sourcePath": "/Users/gwynethang/Documents/Blockchain Projects/vaccinfte/contracts/BatchToken.sol",
  "compiler": {
    "name": "solc",
    "version": "0.8.0+commit.c7dfd78e.Emscripten.clang"
  },
  "schemaVersion": "3.3.1",
  "updatedAt": "2021-05-30T07:42:11.944Z",
  "devdoc": {
    "kind": "dev",
    "methods": {
      "approve(address,uint256)": {
        "details": "See {IERC721-approve}."
      },
      "balanceOf(address)": {
        "details": "See {IERC721-balanceOf}."
      },
      "getApproved(uint256)": {
        "details": "See {IERC721-getApproved}."
      },
      "isApprovedForAll(address,address)": {
        "details": "See {IERC721-isApprovedForAll}."
      },
      "name()": {
        "details": "See {IERC721Metadata-name}."
      },
      "owner()": {
        "details": "Returns the address of the current owner."
      },
      "ownerOf(uint256)": {
        "details": "See {IERC721-ownerOf}."
      },
      "renounceOwnership()": {
        "details": "Leaves the contract without owner. It will not be possible to call `onlyOwner` functions anymore. Can only be called by the current owner. NOTE: Renouncing ownership will leave the contract without an owner, thereby removing any functionality that is only available to the owner."
      },
      "safeTransferFrom(address,address,uint256)": {
        "details": "See {IERC721-safeTransferFrom}."
      },
      "safeTransferFrom(address,address,uint256,bytes)": {
        "details": "See {IERC721-safeTransferFrom}."
      },
      "setApprovalForAll(address,bool)": {
        "details": "See {IERC721-setApprovalForAll}."
      },
      "supportsInterface(bytes4)": {
        "details": "See {IERC165-supportsInterface}."
      },
      "symbol()": {
        "details": "See {IERC721Metadata-symbol}."
      },
      "tokenURI(uint256)": {
        "details": "See {IERC721Metadata-tokenURI}."
      },
      "transferFrom(address,address,uint256)": {
        "details": "See {IERC721-transferFrom}."
      },
      "transferOwnership(address)": {
        "details": "Transfers ownership of the contract to a new account (`newOwner`). Can only be called by the current owner."
      }
    },
    "version": 1
  },
  "userdoc": {
    "kind": "user",
    "methods": {},
    "version": 1
  }
}