{
  "contractName": "Platform",
  "abi": [
    {
      "constant": true,
      "inputs": [
        {
          "internalType": "address",
          "name": "",
          "type": "address"
        }
      ],
      "name": "healthcarePs",
      "outputs": [
        {
          "internalType": "bytes32",
          "name": "name",
          "type": "bytes32"
        }
      ],
      "payable": false,
      "stateMutability": "view",
      "type": "function"
    },
    {
      "constant": true,
      "inputs": [
        {
          "internalType": "address",
          "name": "",
          "type": "address"
        }
      ],
      "name": "individuals",
      "outputs": [
        {
          "internalType": "uint256",
          "name": "nric",
          "type": "uint256"
        },
        {
          "internalType": "bytes32",
          "name": "name",
          "type": "bytes32"
        }
      ],
      "payable": false,
      "stateMutability": "view",
      "type": "function"
    },
    {
      "constant": true,
      "inputs": [
        {
          "internalType": "address",
          "name": "",
          "type": "address"
        }
      ],
      "name": "manufacturers",
      "outputs": [
        {
          "internalType": "bytes32",
          "name": "name",
          "type": "bytes32"
        }
      ],
      "payable": false,
      "stateMutability": "view",
      "type": "function"
    },
    {
      "constant": false,
      "inputs": [
        {
          "internalType": "bytes32",
          "name": "name",
          "type": "bytes32"
        }
      ],
      "name": "createManufacturer",
      "outputs": [],
      "payable": false,
      "stateMutability": "nonpayable",
      "type": "function"
    },
    {
      "constant": false,
      "inputs": [
        {
          "internalType": "bytes32",
          "name": "name",
          "type": "bytes32"
        }
      ],
      "name": "createHealthcareP",
      "outputs": [],
      "payable": false,
      "stateMutability": "nonpayable",
      "type": "function"
    },
    {
      "constant": false,
      "inputs": [
        {
          "internalType": "uint256",
          "name": "nric",
          "type": "uint256"
        },
        {
          "internalType": "bytes32",
          "name": "name",
          "type": "bytes32"
        }
      ],
      "name": "createIndividual",
      "outputs": [],
      "payable": false,
      "stateMutability": "nonpayable",
      "type": "function"
    },
    {
      "constant": true,
      "inputs": [],
      "name": "checkIdentity",
      "outputs": [
        {
          "internalType": "bytes32",
          "name": "",
          "type": "bytes32"
        }
      ],
      "payable": false,
      "stateMutability": "view",
      "type": "function"
    },
    {
      "constant": false,
      "inputs": [
        {
          "internalType": "uint256",
          "name": "x",
          "type": "uint256"
        }
      ],
      "name": "set",
      "outputs": [],
      "payable": false,
      "stateMutability": "nonpayable",
      "type": "function"
    },
    {
      "constant": true,
      "inputs": [],
      "name": "get",
      "outputs": [
        {
          "internalType": "uint256",
          "name": "",
          "type": "uint256"
        }
      ],
      "payable": false,
      "stateMutability": "view",
      "type": "function"
    }
  ],
  "bytecode": "0x608060405234801561001057600080fd5b50610595806100206000396000f3fe608060405234801561001057600080fd5b50600436106100935760003560e01c80636b5eb09c116100665780636b5eb09c1461014a5780636d4ce63c146101a2578063944a2cc0146101c0578063e6c7edd01461021f578063e76210761461027757610093565b806318fcb4c314610098578063328d5e6b146100d05780634de1c9e4146100fe57806360fe47b11461011c575b600080fd5b6100ce600480360360408110156100ae57600080fd5b8101908080359060200190929190803590602001909291905050506102a5565b005b6100fc600480360360208110156100e657600080fd5b8101908080359060200190929190505050610356565b005b6101066103ba565b6040518082815260200191505060405180910390f35b6101486004803603602081101561013257600080fd5b81019080803590602001909291905050506103bf565b005b61018c6004803603602081101561016057600080fd5b81019080803573ffffffffffffffffffffffffffffffffffffffff1690602001909291905050506103c9565b6040518082815260200191505060405180910390f35b6101aa6103e7565b6040518082815260200191505060405180910390f35b610202600480360360208110156101d657600080fd5b81019080803573ffffffffffffffffffffffffffffffffffffffff1690602001909291905050506103f1565b604051808381526020018281526020019250505060405180910390f35b6102616004803603602081101561023557600080fd5b81019080803573ffffffffffffffffffffffffffffffffffffffff169060200190929190505050610415565b6040518082815260200191505060405180910390f35b6102a36004803603602081101561028d57600080fd5b8101908080359060200190929190505050610433565b005b6000339050604051806060016040528084815260200183815260200160405180604001604052806000151515158152602001600015151515815250815250600360008373ffffffffffffffffffffffffffffffffffffffff1673ffffffffffffffffffffffffffffffffffffffff168152602001908152602001600020600082015181600001556020820151816001015560408201518160020190600261034d929190610497565b50905050505050565b6000339050604051806020016040528083815250600160008373ffffffffffffffffffffffffffffffffffffffff1673ffffffffffffffffffffffffffffffffffffffff168152602001908152602001600020600082015181600001559050505050565b600090565b8060048190555050565b60016020528060005260406000206000915090508060000154905081565b6000600454905090565b60036020528060005260406000206000915090508060000154908060010154905082565b60026020528060005260406000206000915090508060000154905081565b6000339050604051806020016040528083815250600260008373ffffffffffffffffffffffffffffffffffffffff1673ffffffffffffffffffffffffffffffffffffffff168152602001908152602001600020600082015181600001559050505050565b826002601f0160209004810192821561051f5791602002820160005b838211156104f057835183826101000a81548160ff02191690831515021790555092602001926001016020816000010492830192600103026104b3565b801561051d5782816101000a81549060ff02191690556001016020816000010492830192600103026104f0565b505b50905061052c9190610530565b5090565b61055d91905b8082111561055957600081816101000a81549060ff021916905550600101610536565b5090565b9056fea265627a7a72315820d73bc0ddf52373551d7f7cee03803185b3a262bd36463fd22a2086fea6e9d57664736f6c63430005100032",
  "source": "// SPDX-License-Identifier: MIT\npragma solidity >=0.4.21;\n\ncontract Platform {\n    struct Manufacturer {\n        bytes32 name;\n    }\n\n    struct HealthcareP {\n        bytes32 name; \n    }\n\n    struct Individual {\n        uint nric;\n        bytes32 name;\n        bool[2] vaccinesReceived;\n    }\n\n    uint[] ids;\n\n    mapping (address => Manufacturer) public manufacturers;\n    mapping (address => HealthcareP) public healthcarePs;\n    mapping (address => Individual) public individuals;\n    \n\n    function createManufacturer(bytes32 name) public{\n        address id = msg.sender;\n        manufacturers[id] = Manufacturer(name);\n    }\n\n    function createHealthcareP(bytes32 name) public{\n        address id = msg.sender;\n        healthcarePs[id] = HealthcareP(name);\n    }\n\n    function createIndividual(uint nric, bytes32 name) public{\n        address id = msg.sender;\n        individuals[id] = Individual(nric, name, [false, false]);\n    }\n\n    function checkIdentity() public view returns(bytes32){\n\n    }\n\n\n  uint storedData;\n\n  function set(uint x) public {\n    storedData = x;\n  }\n\n  function get() public view returns (uint) {\n    return storedData;\n  }\n}\n",
  "sourcePath": "/Users/gwynethang/Documents/Blockchain Projects/vaccinfte/contracts/Platform.sol",
  "compiler": {
    "name": "solc",
    "version": "0.5.16+commit.9c3226ce.Emscripten.clang"
  },
  "schemaVersion": "3.3.1",
  "updatedAt": "2021-05-30T03:32:04.163Z",
  "devdoc": {
    "methods": {}
  },
  "userdoc": {
    "methods": {}
  }
}