{
  "contractName": "Platform",
  "abi": [
    {
      "inputs": [
        {
          "internalType": "address",
          "name": "",
          "type": "address"
        }
      ],
      "name": "healthcarePs",
      "outputs": [
        {
          "internalType": "bytes32",
          "name": "name",
          "type": "bytes32"
        },
        {
          "internalType": "bool",
          "name": "isValid",
          "type": "bool"
        }
      ],
      "stateMutability": "view",
      "type": "function"
    },
    {
      "inputs": [
        {
          "internalType": "address",
          "name": "",
          "type": "address"
        }
      ],
      "name": "individuals",
      "outputs": [
        {
          "internalType": "uint256",
          "name": "nric",
          "type": "uint256"
        },
        {
          "internalType": "bytes32",
          "name": "name",
          "type": "bytes32"
        },
        {
          "internalType": "bool",
          "name": "isValid",
          "type": "bool"
        }
      ],
      "stateMutability": "view",
      "type": "function"
    },
    {
      "inputs": [
        {
          "internalType": "address",
          "name": "",
          "type": "address"
        }
      ],
      "name": "manufacturers",
      "outputs": [
        {
          "internalType": "bytes32",
          "name": "name",
          "type": "bytes32"
        },
        {
          "internalType": "bool",
          "name": "isValid",
          "type": "bool"
        }
      ],
      "stateMutability": "view",
      "type": "function"
    },
    {
      "inputs": [
        {
          "internalType": "bytes32",
          "name": "name",
          "type": "bytes32"
        }
      ],
      "name": "createManufacturer",
      "outputs": [],
      "stateMutability": "nonpayable",
      "type": "function"
    },
    {
      "inputs": [
        {
          "internalType": "bytes32",
          "name": "name",
          "type": "bytes32"
        }
      ],
      "name": "createHealthcareP",
      "outputs": [],
      "stateMutability": "nonpayable",
      "type": "function"
    },
    {
      "inputs": [
        {
          "internalType": "uint256",
          "name": "nric",
          "type": "uint256"
        },
        {
          "internalType": "bytes32",
          "name": "name",
          "type": "bytes32"
        }
      ],
      "name": "createIndividual",
      "outputs": [],
      "stateMutability": "nonpayable",
      "type": "function"
    },
    {
      "inputs": [],
      "name": "checkIdentity",
      "outputs": [
        {
          "internalType": "bytes32",
          "name": "",
          "type": "bytes32"
        }
      ],
      "stateMutability": "view",
      "type": "function"
    },
    {
      "inputs": [
        {
          "internalType": "uint256",
          "name": "x",
          "type": "uint256"
        }
      ],
      "name": "set",
      "outputs": [],
      "stateMutability": "nonpayable",
      "type": "function"
    },
    {
      "inputs": [],
      "name": "get",
      "outputs": [
        {
          "internalType": "uint256",
          "name": "",
          "type": "uint256"
        }
      ],
      "stateMutability": "view",
      "type": "function"
    }
  ],
  "bytecode": "0x608060405234801561001057600080fd5b50610955806100206000396000f3fe608060405234801561001057600080fd5b50600436106100935760003560e01c80636b5eb09c116100665780636b5eb09c1461010a5780636d4ce63c1461013b578063944a2cc014610159578063e6c7edd01461018b578063e7621076146101bc57610093565b806318fcb4c314610098578063328d5e6b146100b45780634de1c9e4146100d057806360fe47b1146100ee575b600080fd5b6100b260048036038101906100ad9190610789565b6101d8565b005b6100ce60048036038101906100c99190610737565b6102b2565b005b6100d861033f565b6040516100e591906107f2565b60405180910390f35b61010860048036038101906101039190610760565b6104df565b005b610124600480360381019061011f919061070e565b6104e9565b60405161013292919061080d565b60405180910390f35b61014361051a565b6040516101509190610836565b60405180910390f35b610173600480360381019061016e919061070e565b610524565b60405161018293929190610851565b60405180910390f35b6101a560048036038101906101a0919061070e565b61055b565b6040516101b392919061080d565b60405180910390f35b6101d660048036038101906101d19190610737565b61058c565b005b6000339050604051806080016040528084815260200183815260200160405180604001604052806000151515158152602001600015151515815250815260200160011515815250600360008373ffffffffffffffffffffffffffffffffffffffff1673ffffffffffffffffffffffffffffffffffffffff1681526020019081526020016000206000820151816000015560208201518160010155604082015181600201906002610289929190610619565b5060608201518160030160006101000a81548160ff021916908315150217905550905050505050565b6000339050604051806040016040528083815260200160011515815250600160008373ffffffffffffffffffffffffffffffffffffffff1673ffffffffffffffffffffffffffffffffffffffff1681526020019081526020016000206000820151816000015560208201518160010160006101000a81548160ff0219169083151502179055509050505050565b6000600160003373ffffffffffffffffffffffffffffffffffffffff1673ffffffffffffffffffffffffffffffffffffffff16815260200190815260200160002060010160009054906101000a900460ff16156103be577f4d616e756661637475726572000000000000000000000000000000000000000090506104dc565b600260003373ffffffffffffffffffffffffffffffffffffffff1673ffffffffffffffffffffffffffffffffffffffff16815260200190815260200160002060010160009054906101000a900460ff161561043b577f4865616c7468636172655000000000000000000000000000000000000000000090506104dc565b600360003373ffffffffffffffffffffffffffffffffffffffff1673ffffffffffffffffffffffffffffffffffffffff16815260200190815260200160002060030160009054906101000a900460ff16156104b8577f496e646976696475616c0000000000000000000000000000000000000000000090506104dc565b7f4e6577205573657200000000000000000000000000000000000000000000000090505b90565b8060048190555050565b60016020528060005260406000206000915090508060000154908060010160009054906101000a900460ff16905082565b6000600454905090565b60036020528060005260406000206000915090508060000154908060010154908060030160009054906101000a900460ff16905083565b60026020528060005260406000206000915090508060000154908060010160009054906101000a900460ff16905082565b6000339050604051806040016040528083815260200160011515815250600260008373ffffffffffffffffffffffffffffffffffffffff1673ffffffffffffffffffffffffffffffffffffffff1681526020019081526020016000206000820151816000015560208201518160010160006101000a81548160ff0219169083151502179055509050505050565b826002601f016020900481019282156106a15791602002820160005b8382111561067257835183826101000a81548160ff0219169083151502179055509260200192600101602081600001049283019260010302610635565b801561069f5782816101000a81549060ff0219169055600101602081600001049283019260010302610672565b505b5090506106ae91906106b2565b5090565b5b808211156106cb5760008160009055506001016106b3565b5090565b6000813590506106de816108da565b92915050565b6000813590506106f3816108f1565b92915050565b60008135905061070881610908565b92915050565b60006020828403121561072057600080fd5b600061072e848285016106cf565b91505092915050565b60006020828403121561074957600080fd5b6000610757848285016106e4565b91505092915050565b60006020828403121561077257600080fd5b6000610780848285016106f9565b91505092915050565b6000806040838503121561079c57600080fd5b60006107aa858286016106f9565b92505060206107bb858286016106e4565b9150509250929050565b6107ce8161089a565b82525050565b6107dd816108a6565b82525050565b6107ec816108d0565b82525050565b600060208201905061080760008301846107d4565b92915050565b600060408201905061082260008301856107d4565b61082f60208301846107c5565b9392505050565b600060208201905061084b60008301846107e3565b92915050565b600060608201905061086660008301866107e3565b61087360208301856107d4565b61088060408301846107c5565b949350505050565b6000610893826108b0565b9050919050565b60008115159050919050565b6000819050919050565b600073ffffffffffffffffffffffffffffffffffffffff82169050919050565b6000819050919050565b6108e381610888565b81146108ee57600080fd5b50565b6108fa816108a6565b811461090557600080fd5b50565b610911816108d0565b811461091c57600080fd5b5056fea26469706673582212205ee85e504d9ac411d6e09532c2bc8345d67b9c83fce62db6999e818aa2bf258264736f6c63430008000033",
  "immutableReferences": {},
  "source": "// SPDX-License-Identifier: MIT\npragma solidity >=0.4.21;\n\ncontract Platform {\n    struct Manufacturer {\n        bytes32 name;\n        bool isValid;\n    }\n\n    struct HealthcareP {\n        bytes32 name; \n        bool isValid;\n    }\n\n    struct Individual {\n        uint nric;\n        bytes32 name;\n        bool[2] vaccinesReceived;\n        bool isValid;\n    }\n\n    uint[] ids;\n\n    mapping (address => Manufacturer) public manufacturers;\n    mapping (address => HealthcareP) public healthcarePs;\n    mapping (address => Individual) public individuals;\n    \n\n    function createManufacturer(bytes32 name) public{\n        address id = msg.sender;\n        manufacturers[id] = Manufacturer(name, true);\n    }\n\n    function createHealthcareP(bytes32 name) public{\n        address id = msg.sender;\n        healthcarePs[id] = HealthcareP(name, true);\n    }\n\n    function createIndividual(uint nric, bytes32 name) public{\n        address id = msg.sender;\n        individuals[id] = Individual(nric, name, [false, false], true); \n    }\n\n    function checkIdentity() public view returns(bytes32){\n        if(manufacturers[msg.sender].isValid){\n            return bytes32(\"Manufacturer\");\n        } else if (healthcarePs[msg.sender].isValid){\n            return bytes32(\"HealthcareP\");\n        } else if (individuals[msg.sender].isValid){\n            return bytes32(\"Individual\");\n        }\n        return bytes32(\"New User\");\n    }\n\n\n  uint storedData;\n\n  function set(uint x) public {\n    storedData = x;\n  }\n\n  function get() public view returns (uint) {\n    return storedData;\n  }\n}\n",
  "sourcePath": "/Users/gwynethang/Documents/Blockchain Projects/vaccinfte/contracts/Platform.sol",
  "compiler": {
    "name": "solc",
    "version": "0.8.0+commit.c7dfd78e.Emscripten.clang"
  },
  "schemaVersion": "3.3.1",
  "updatedAt": "2021-05-30T10:29:57.600Z",
  "devdoc": {
    "kind": "dev",
    "methods": {},
    "version": 1
  },
  "userdoc": {
    "kind": "user",
    "methods": {},
    "version": 1
  }
}